{
	"contracts/Banking.sol": {
		"Banking": {
			"abi": [
				{
					"inputs": [
						{
							"internalType": "address",
							"name": "",
							"type": "address"
						}
					],
					"name": "balances",
					"outputs": [
						{
							"internalType": "uint256",
							"name": "",
							"type": "uint256"
						}
					],
					"stateMutability": "view",
					"type": "function"
				},
				{
					"inputs": [],
					"name": "deposit",
					"outputs": [],
					"stateMutability": "payable",
					"type": "function"
				},
				{
					"inputs": [],
					"name": "getBalance",
					"outputs": [
						{
							"internalType": "uint256",
							"name": "",
							"type": "uint256"
						}
					],
					"stateMutability": "view",
					"type": "function"
				},
				{
					"inputs": [
						{
							"internalType": "uint256",
							"name": "amount",
							"type": "uint256"
						}
					],
					"name": "withdraw",
					"outputs": [],
					"stateMutability": "nonpayable",
					"type": "function"
				}
			],
			"devdoc": {
				"kind": "dev",
				"methods": {},
				"version": 1
			},
			"evm": {
				"assembly": "    /* \"contracts/Banking.sol\":66:1406  contract Banking {\r... */\n  mstore(0x40, 0x80)\n  callvalue\n  dup1\n  iszero\n  tag_1\n  jumpi\n  0x00\n  dup1\n  revert\ntag_1:\n  pop\n  dataSize(sub_0)\n  dup1\n  dataOffset(sub_0)\n  0x00\n  codecopy\n  0x00\n  return\nstop\n\nsub_0: assembly {\n        /* \"contracts/Banking.sol\":66:1406  contract Banking {\r... */\n      mstore(0x40, 0x80)\n      jumpi(tag_1, lt(calldatasize, 0x04))\n      shr(0xe0, calldataload(0x00))\n      dup1\n      0x12065fe0\n      eq\n      tag_2\n      jumpi\n      dup1\n      0x27e235e3\n      eq\n      tag_3\n      jumpi\n      dup1\n      0x2e1a7d4d\n      eq\n      tag_4\n      jumpi\n      dup1\n      0xd0e30db0\n      eq\n      tag_5\n      jumpi\n    tag_1:\n      0x00\n      dup1\n      revert\n        /* \"contracts/Banking.sol\":1310:1403  function getBalance() public view returns (uint256) {\r... */\n    tag_2:\n      callvalue\n      dup1\n      iszero\n      tag_6\n      jumpi\n      0x00\n      dup1\n      revert\n    tag_6:\n      pop\n      tag_7\n      tag_8\n      jump\t// in\n    tag_7:\n      mload(0x40)\n      tag_9\n      swap2\n      swap1\n      tag_10\n      jump\t// in\n    tag_9:\n      mload(0x40)\n      dup1\n      swap2\n      sub\n      swap1\n      return\n        /* \"contracts/Banking.sol\":879:922  mapping(address => uint256) public balances */\n    tag_3:\n      callvalue\n      dup1\n      iszero\n      tag_11\n      jumpi\n      0x00\n      dup1\n      revert\n    tag_11:\n      pop\n      tag_12\n      0x04\n      dup1\n      calldatasize\n      sub\n      dup2\n      add\n      swap1\n      tag_13\n      swap2\n      swap1\n      tag_14\n      jump\t// in\n    tag_13:\n      tag_15\n      jump\t// in\n    tag_12:\n      mload(0x40)\n      tag_16\n      swap2\n      swap1\n      tag_10\n      jump\t// in\n    tag_16:\n      mload(0x40)\n      dup1\n      swap2\n      sub\n      swap1\n      return\n        /* \"contracts/Banking.sol\":1027:1302  function withdraw(uint256 amount) public {\r... */\n    tag_4:\n      callvalue\n      dup1\n      iszero\n      tag_17\n      jumpi\n      0x00\n      dup1\n      revert\n    tag_17:\n      pop\n      tag_18\n      0x04\n      dup1\n      calldatasize\n      sub\n      dup2\n      add\n      swap1\n      tag_19\n      swap2\n      swap1\n      tag_20\n      jump\t// in\n    tag_19:\n      tag_21\n      jump\t// in\n    tag_18:\n      stop\n        /* \"contracts/Banking.sol\":932:1019  function deposit() public payable {\r... */\n    tag_5:\n      tag_22\n      tag_23\n      jump\t// in\n    tag_22:\n      stop\n        /* \"contracts/Banking.sol\":1310:1403  function getBalance() public view returns (uint256) {\r... */\n    tag_8:\n        /* \"contracts/Banking.sol\":1353:1360  uint256 */\n      0x00\n        /* \"contracts/Banking.sol\":1376:1386  msg.sender */\n      caller\n        /* \"contracts/Banking.sol\":1376:1394  msg.sender.balance */\n      0xffffffffffffffffffffffffffffffffffffffff\n      and\n      balance\n        /* \"contracts/Banking.sol\":1369:1394  return msg.sender.balance */\n      swap1\n      pop\n        /* \"contracts/Banking.sol\":1310:1403  function getBalance() public view returns (uint256) {\r... */\n      swap1\n      jump\t// out\n        /* \"contracts/Banking.sol\":879:922  mapping(address => uint256) public balances */\n    tag_15:\n      mstore(0x20, 0x00)\n      dup1\n      0x00\n      mstore\n      keccak256(0x00, 0x40)\n      0x00\n      swap2\n      pop\n      swap1\n      pop\n      sload\n      dup2\n      jump\t// out\n        /* \"contracts/Banking.sol\":1027:1302  function withdraw(uint256 amount) public {\r... */\n    tag_21:\n        /* \"contracts/Banking.sol\":1111:1117  amount */\n      dup1\n        /* \"contracts/Banking.sol\":1087:1095  balances */\n      0x00\n        /* \"contracts/Banking.sol\":1087:1107  balances[msg.sender] */\n      dup1\n        /* \"contracts/Banking.sol\":1096:1106  msg.sender */\n      caller\n        /* \"contracts/Banking.sol\":1087:1107  balances[msg.sender] */\n      0xffffffffffffffffffffffffffffffffffffffff\n      and\n      0xffffffffffffffffffffffffffffffffffffffff\n      and\n      dup2\n      mstore\n      0x20\n      add\n      swap1\n      dup2\n      mstore\n      0x20\n      add\n      0x00\n      keccak256\n      sload\n        /* \"contracts/Banking.sol\":1087:1117  balances[msg.sender] >= amount */\n      lt\n      iszero\n        /* \"contracts/Banking.sol\":1079:1138  require(balances[msg.sender] >= amount, \"Not enough Ether\") */\n      tag_26\n      jumpi\n      mload(0x40)\n      0x08c379a000000000000000000000000000000000000000000000000000000000\n      dup2\n      mstore\n      0x04\n      add\n      tag_27\n      swap1\n      tag_28\n      jump\t// in\n    tag_27:\n      mload(0x40)\n      dup1\n      swap2\n      sub\n      swap1\n      revert\n    tag_26:\n        /* \"contracts/Banking.sol\":1174:1180  amount */\n      dup1\n        /* \"contracts/Banking.sol\":1150:1158  balances */\n      0x00\n        /* \"contracts/Banking.sol\":1150:1170  balances[msg.sender] */\n      dup1\n        /* \"contracts/Banking.sol\":1159:1169  msg.sender */\n      caller\n        /* \"contracts/Banking.sol\":1150:1170  balances[msg.sender] */\n      0xffffffffffffffffffffffffffffffffffffffff\n      and\n      0xffffffffffffffffffffffffffffffffffffffff\n      and\n      dup2\n      mstore\n      0x20\n      add\n      swap1\n      dup2\n      mstore\n      0x20\n      add\n      0x00\n      keccak256\n      0x00\n        /* \"contracts/Banking.sol\":1150:1180  balances[msg.sender] -= amount */\n      dup3\n      dup3\n      sload\n      tag_29\n      swap2\n      swap1\n      tag_30\n      jump\t// in\n    tag_29:\n      swap3\n      pop\n      pop\n      dup2\n      swap1\n      sstore\n      pop\n        /* \"contracts/Banking.sol\":1193:1202  bool sent */\n      0x00\n        /* \"contracts/Banking.sol\":1207:1217  msg.sender */\n      caller\n        /* \"contracts/Banking.sol\":1207:1222  msg.sender.call */\n      0xffffffffffffffffffffffffffffffffffffffff\n      and\n        /* \"contracts/Banking.sol\":1230:1236  amount */\n      dup3\n        /* \"contracts/Banking.sol\":1207:1245  msg.sender.call{value: amount}(\"Sent\") */\n      mload(0x40)\n      tag_31\n      swap1\n      tag_32\n      jump\t// in\n    tag_31:\n      0x00\n      mload(0x40)\n      dup1\n      dup4\n      sub\n      dup2\n      dup6\n      dup8\n      gas\n      call\n      swap3\n      pop\n      pop\n      pop\n      returndatasize\n      dup1\n      0x00\n      dup2\n      eq\n      tag_35\n      jumpi\n      mload(0x40)\n      swap2\n      pop\n      and(add(returndatasize, 0x3f), not(0x1f))\n      dup3\n      add\n      0x40\n      mstore\n      returndatasize\n      dup3\n      mstore\n      returndatasize\n      0x00\n      0x20\n      dup5\n      add\n      returndatacopy\n      jump(tag_34)\n    tag_35:\n      0x60\n      swap2\n      pop\n    tag_34:\n      pop\n        /* \"contracts/Banking.sol\":1192:1245  (bool sent,) = msg.sender.call{value: amount}(\"Sent\") */\n      pop\n      swap1\n      pop\n        /* \"contracts/Banking.sol\":1265:1269  sent */\n      dup1\n        /* \"contracts/Banking.sol\":1257:1294  require(sent, \"Failed to send Ether\") */\n      tag_36\n      jumpi\n      mload(0x40)\n      0x08c379a000000000000000000000000000000000000000000000000000000000\n      dup2\n      mstore\n      0x04\n      add\n      tag_37\n      swap1\n      tag_38\n      jump\t// in\n    tag_37:\n      mload(0x40)\n      dup1\n      swap2\n      sub\n      swap1\n      revert\n    tag_36:\n        /* \"contracts/Banking.sol\":1068:1302  {\r... */\n      pop\n        /* \"contracts/Banking.sol\":1027:1302  function withdraw(uint256 amount) public {\r... */\n      pop\n      jump\t// out\n        /* \"contracts/Banking.sol\":932:1019  function deposit() public payable {\r... */\n    tag_23:\n        /* \"contracts/Banking.sol\":1001:1010  msg.value */\n      callvalue\n        /* \"contracts/Banking.sol\":977:985  balances */\n      0x00\n        /* \"contracts/Banking.sol\":977:997  balances[msg.sender] */\n      dup1\n        /* \"contracts/Banking.sol\":986:996  msg.sender */\n      caller\n        /* \"contracts/Banking.sol\":977:997  balances[msg.sender] */\n      0xffffffffffffffffffffffffffffffffffffffff\n      and\n      0xffffffffffffffffffffffffffffffffffffffff\n      and\n      dup2\n      mstore\n      0x20\n      add\n      swap1\n      dup2\n      mstore\n      0x20\n      add\n      0x00\n      keccak256\n      0x00\n        /* \"contracts/Banking.sol\":977:1010  balances[msg.sender] += msg.value */\n      dup3\n      dup3\n      sload\n      tag_40\n      swap2\n      swap1\n      tag_41\n      jump\t// in\n    tag_40:\n      swap3\n      pop\n      pop\n      dup2\n      swap1\n      sstore\n      pop\n        /* \"contracts/Banking.sol\":932:1019  function deposit() public payable {\r... */\n      jump\t// out\n        /* \"#utility.yul\":7:146   */\n    tag_43:\n        /* \"#utility.yul\":53:58   */\n      0x00\n        /* \"#utility.yul\":91:97   */\n      dup2\n        /* \"#utility.yul\":78:98   */\n      calldataload\n        /* \"#utility.yul\":69:98   */\n      swap1\n      pop\n        /* \"#utility.yul\":107:140   */\n      tag_45\n        /* \"#utility.yul\":134:139   */\n      dup2\n        /* \"#utility.yul\":107:140   */\n      tag_46\n      jump\t// in\n    tag_45:\n        /* \"#utility.yul\":7:146   */\n      swap3\n      swap2\n      pop\n      pop\n      jump\t// out\n        /* \"#utility.yul\":152:291   */\n    tag_47:\n        /* \"#utility.yul\":198:203   */\n      0x00\n        /* \"#utility.yul\":236:242   */\n      dup2\n        /* \"#utility.yul\":223:243   */\n      calldataload\n        /* \"#utility.yul\":214:243   */\n      swap1\n      pop\n        /* \"#utility.yul\":252:285   */\n      tag_49\n        /* \"#utility.yul\":279:284   */\n      dup2\n        /* \"#utility.yul\":252:285   */\n      tag_50\n      jump\t// in\n    tag_49:\n        /* \"#utility.yul\":152:291   */\n      swap3\n      swap2\n      pop\n      pop\n      jump\t// out\n        /* \"#utility.yul\":297:626   */\n    tag_14:\n        /* \"#utility.yul\":356:362   */\n      0x00\n        /* \"#utility.yul\":405:407   */\n      0x20\n        /* \"#utility.yul\":393:402   */\n      dup3\n        /* \"#utility.yul\":384:391   */\n      dup5\n        /* \"#utility.yul\":380:403   */\n      sub\n        /* \"#utility.yul\":376:408   */\n      slt\n        /* \"#utility.yul\":373:492   */\n      iszero\n      tag_52\n      jumpi\n        /* \"#utility.yul\":411:490   */\n      tag_53\n      tag_54\n      jump\t// in\n    tag_53:\n        /* \"#utility.yul\":373:492   */\n    tag_52:\n        /* \"#utility.yul\":531:532   */\n      0x00\n        /* \"#utility.yul\":556:609   */\n      tag_55\n        /* \"#utility.yul\":601:608   */\n      dup5\n        /* \"#utility.yul\":592:598   */\n      dup3\n        /* \"#utility.yul\":581:590   */\n      dup6\n        /* \"#utility.yul\":577:599   */\n      add\n        /* \"#utility.yul\":556:609   */\n      tag_43\n      jump\t// in\n    tag_55:\n        /* \"#utility.yul\":546:609   */\n      swap2\n      pop\n        /* \"#utility.yul\":502:619   */\n      pop\n        /* \"#utility.yul\":297:626   */\n      swap3\n      swap2\n      pop\n      pop\n      jump\t// out\n        /* \"#utility.yul\":632:961   */\n    tag_20:\n        /* \"#utility.yul\":691:697   */\n      0x00\n        /* \"#utility.yul\":740:742   */\n      0x20\n        /* \"#utility.yul\":728:737   */\n      dup3\n        /* \"#utility.yul\":719:726   */\n      dup5\n        /* \"#utility.yul\":715:738   */\n      sub\n        /* \"#utility.yul\":711:743   */\n      slt\n        /* \"#utility.yul\":708:827   */\n      iszero\n      tag_57\n      jumpi\n        /* \"#utility.yul\":746:825   */\n      tag_58\n      tag_54\n      jump\t// in\n    tag_58:\n        /* \"#utility.yul\":708:827   */\n    tag_57:\n        /* \"#utility.yul\":866:867   */\n      0x00\n        /* \"#utility.yul\":891:944   */\n      tag_59\n        /* \"#utility.yul\":936:943   */\n      dup5\n        /* \"#utility.yul\":927:933   */\n      dup3\n        /* \"#utility.yul\":916:925   */\n      dup6\n        /* \"#utility.yul\":912:934   */\n      add\n        /* \"#utility.yul\":891:944   */\n      tag_47\n      jump\t// in\n    tag_59:\n        /* \"#utility.yul\":881:944   */\n      swap2\n      pop\n        /* \"#utility.yul\":837:954   */\n      pop\n        /* \"#utility.yul\":632:961   */\n      swap3\n      swap2\n      pop\n      pop\n      jump\t// out\n        /* \"#utility.yul\":967:1333   */\n    tag_60:\n        /* \"#utility.yul\":1109:1112   */\n      0x00\n        /* \"#utility.yul\":1130:1197   */\n      tag_62\n        /* \"#utility.yul\":1194:1196   */\n      0x14\n        /* \"#utility.yul\":1189:1192   */\n      dup4\n        /* \"#utility.yul\":1130:1197   */\n      tag_63\n      jump\t// in\n    tag_62:\n        /* \"#utility.yul\":1123:1197   */\n      swap2\n      pop\n        /* \"#utility.yul\":1206:1299   */\n      tag_64\n        /* \"#utility.yul\":1295:1298   */\n      dup3\n        /* \"#utility.yul\":1206:1299   */\n      tag_65\n      jump\t// in\n    tag_64:\n        /* \"#utility.yul\":1324:1326   */\n      0x20\n        /* \"#utility.yul\":1319:1322   */\n      dup3\n        /* \"#utility.yul\":1315:1327   */\n      add\n        /* \"#utility.yul\":1308:1327   */\n      swap1\n      pop\n        /* \"#utility.yul\":967:1333   */\n      swap2\n      swap1\n      pop\n      jump\t// out\n        /* \"#utility.yul\":1339:1705   */\n    tag_66:\n        /* \"#utility.yul\":1481:1484   */\n      0x00\n        /* \"#utility.yul\":1502:1569   */\n      tag_68\n        /* \"#utility.yul\":1566:1568   */\n      0x10\n        /* \"#utility.yul\":1561:1564   */\n      dup4\n        /* \"#utility.yul\":1502:1569   */\n      tag_63\n      jump\t// in\n    tag_68:\n        /* \"#utility.yul\":1495:1569   */\n      swap2\n      pop\n        /* \"#utility.yul\":1578:1671   */\n      tag_69\n        /* \"#utility.yul\":1667:1670   */\n      dup3\n        /* \"#utility.yul\":1578:1671   */\n      tag_70\n      jump\t// in\n    tag_69:\n        /* \"#utility.yul\":1696:1698   */\n      0x20\n        /* \"#utility.yul\":1691:1694   */\n      dup3\n        /* \"#utility.yul\":1687:1699   */\n      add\n        /* \"#utility.yul\":1680:1699   */\n      swap1\n      pop\n        /* \"#utility.yul\":1339:1705   */\n      swap2\n      swap1\n      pop\n      jump\t// out\n        /* \"#utility.yul\":1711:2109   */\n    tag_71:\n        /* \"#utility.yul\":1870:1873   */\n      0x00\n        /* \"#utility.yul\":1891:1974   */\n      tag_73\n        /* \"#utility.yul\":1972:1973   */\n      0x04\n        /* \"#utility.yul\":1967:1970   */\n      dup4\n        /* \"#utility.yul\":1891:1974   */\n      tag_74\n      jump\t// in\n    tag_73:\n        /* \"#utility.yul\":1884:1974   */\n      swap2\n      pop\n        /* \"#utility.yul\":1983:2076   */\n      tag_75\n        /* \"#utility.yul\":2072:2075   */\n      dup3\n        /* \"#utility.yul\":1983:2076   */\n      tag_76\n      jump\t// in\n    tag_75:\n        /* \"#utility.yul\":2101:2102   */\n      0x04\n        /* \"#utility.yul\":2096:2099   */\n      dup3\n        /* \"#utility.yul\":2092:2103   */\n      add\n        /* \"#utility.yul\":2085:2103   */\n      swap1\n      pop\n        /* \"#utility.yul\":1711:2109   */\n      swap2\n      swap1\n      pop\n      jump\t// out\n        /* \"#utility.yul\":2115:2233   */\n    tag_77:\n        /* \"#utility.yul\":2202:2226   */\n      tag_79\n        /* \"#utility.yul\":2220:2225   */\n      dup2\n        /* \"#utility.yul\":2202:2226   */\n      tag_80\n      jump\t// in\n    tag_79:\n        /* \"#utility.yul\":2197:2200   */\n      dup3\n        /* \"#utility.yul\":2190:2227   */\n      mstore\n        /* \"#utility.yul\":2115:2233   */\n      pop\n      pop\n      jump\t// out\n        /* \"#utility.yul\":2239:2618   */\n    tag_32:\n        /* \"#utility.yul\":2423:2426   */\n      0x00\n        /* \"#utility.yul\":2445:2592   */\n      tag_82\n        /* \"#utility.yul\":2588:2591   */\n      dup3\n        /* \"#utility.yul\":2445:2592   */\n      tag_71\n      jump\t// in\n    tag_82:\n        /* \"#utility.yul\":2438:2592   */\n      swap2\n      pop\n        /* \"#utility.yul\":2609:2612   */\n      dup2\n        /* \"#utility.yul\":2602:2612   */\n      swap1\n      pop\n        /* \"#utility.yul\":2239:2618   */\n      swap2\n      swap1\n      pop\n      jump\t// out\n        /* \"#utility.yul\":2624:3043   */\n    tag_38:\n        /* \"#utility.yul\":2790:2794   */\n      0x00\n        /* \"#utility.yul\":2828:2830   */\n      0x20\n        /* \"#utility.yul\":2817:2826   */\n      dup3\n        /* \"#utility.yul\":2813:2831   */\n      add\n        /* \"#utility.yul\":2805:2831   */\n      swap1\n      pop\n        /* \"#utility.yul\":2877:2886   */\n      dup2\n        /* \"#utility.yul\":2871:2875   */\n      dup2\n        /* \"#utility.yul\":2867:2887   */\n      sub\n        /* \"#utility.yul\":2863:2864   */\n      0x00\n        /* \"#utility.yul\":2852:2861   */\n      dup4\n        /* \"#utility.yul\":2848:2865   */\n      add\n        /* \"#utility.yul\":2841:2888   */\n      mstore\n        /* \"#utility.yul\":2905:3036   */\n      tag_84\n        /* \"#utility.yul\":3031:3035   */\n      dup2\n        /* \"#utility.yul\":2905:3036   */\n      tag_60\n      jump\t// in\n    tag_84:\n        /* \"#utility.yul\":2897:3036   */\n      swap1\n      pop\n        /* \"#utility.yul\":2624:3043   */\n      swap2\n      swap1\n      pop\n      jump\t// out\n        /* \"#utility.yul\":3049:3468   */\n    tag_28:\n        /* \"#utility.yul\":3215:3219   */\n      0x00\n        /* \"#utility.yul\":3253:3255   */\n      0x20\n        /* \"#utility.yul\":3242:3251   */\n      dup3\n        /* \"#utility.yul\":3238:3256   */\n      add\n        /* \"#utility.yul\":3230:3256   */\n      swap1\n      pop\n        /* \"#utility.yul\":3302:3311   */\n      dup2\n        /* \"#utility.yul\":3296:3300   */\n      dup2\n        /* \"#utility.yul\":3292:3312   */\n      sub\n        /* \"#utility.yul\":3288:3289   */\n      0x00\n        /* \"#utility.yul\":3277:3286   */\n      dup4\n        /* \"#utility.yul\":3273:3290   */\n      add\n        /* \"#utility.yul\":3266:3313   */\n      mstore\n        /* \"#utility.yul\":3330:3461   */\n      tag_86\n        /* \"#utility.yul\":3456:3460   */\n      dup2\n        /* \"#utility.yul\":3330:3461   */\n      tag_66\n      jump\t// in\n    tag_86:\n        /* \"#utility.yul\":3322:3461   */\n      swap1\n      pop\n        /* \"#utility.yul\":3049:3468   */\n      swap2\n      swap1\n      pop\n      jump\t// out\n        /* \"#utility.yul\":3474:3696   */\n    tag_10:\n        /* \"#utility.yul\":3567:3571   */\n      0x00\n        /* \"#utility.yul\":3605:3607   */\n      0x20\n        /* \"#utility.yul\":3594:3603   */\n      dup3\n        /* \"#utility.yul\":3590:3608   */\n      add\n        /* \"#utility.yul\":3582:3608   */\n      swap1\n      pop\n        /* \"#utility.yul\":3618:3689   */\n      tag_88\n        /* \"#utility.yul\":3686:3687   */\n      0x00\n        /* \"#utility.yul\":3675:3684   */\n      dup4\n        /* \"#utility.yul\":3671:3688   */\n      add\n        /* \"#utility.yul\":3662:3668   */\n      dup5\n        /* \"#utility.yul\":3618:3689   */\n      tag_77\n      jump\t// in\n    tag_88:\n        /* \"#utility.yul\":3474:3696   */\n      swap3\n      swap2\n      pop\n      pop\n      jump\t// out\n        /* \"#utility.yul\":3783:3930   */\n    tag_74:\n        /* \"#utility.yul\":3884:3895   */\n      0x00\n        /* \"#utility.yul\":3921:3924   */\n      dup2\n        /* \"#utility.yul\":3906:3924   */\n      swap1\n      pop\n        /* \"#utility.yul\":3783:3930   */\n      swap3\n      swap2\n      pop\n      pop\n      jump\t// out\n        /* \"#utility.yul\":3936:4105   */\n    tag_63:\n        /* \"#utility.yul\":4020:4031   */\n      0x00\n        /* \"#utility.yul\":4054:4060   */\n      dup3\n        /* \"#utility.yul\":4049:4052   */\n      dup3\n        /* \"#utility.yul\":4042:4061   */\n      mstore\n        /* \"#utility.yul\":4094:4098   */\n      0x20\n        /* \"#utility.yul\":4089:4092   */\n      dup3\n        /* \"#utility.yul\":4085:4099   */\n      add\n        /* \"#utility.yul\":4070:4099   */\n      swap1\n      pop\n        /* \"#utility.yul\":3936:4105   */\n      swap3\n      swap2\n      pop\n      pop\n      jump\t// out\n        /* \"#utility.yul\":4111:4416   */\n    tag_41:\n        /* \"#utility.yul\":4151:4154   */\n      0x00\n        /* \"#utility.yul\":4170:4190   */\n      tag_94\n        /* \"#utility.yul\":4188:4189   */\n      dup3\n        /* \"#utility.yul\":4170:4190   */\n      tag_80\n      jump\t// in\n    tag_94:\n        /* \"#utility.yul\":4165:4190   */\n      swap2\n      pop\n        /* \"#utility.yul\":4204:4224   */\n      tag_95\n        /* \"#utility.yul\":4222:4223   */\n      dup4\n        /* \"#utility.yul\":4204:4224   */\n      tag_80\n      jump\t// in\n    tag_95:\n        /* \"#utility.yul\":4199:4224   */\n      swap3\n      pop\n        /* \"#utility.yul\":4358:4359   */\n      dup3\n        /* \"#utility.yul\":4290:4356   */\n      0xffffffffffffffffffffffffffffffffffffffffffffffffffffffffffffffff\n        /* \"#utility.yul\":4286:4360   */\n      sub\n        /* \"#utility.yul\":4283:4284   */\n      dup3\n        /* \"#utility.yul\":4280:4361   */\n      gt\n        /* \"#utility.yul\":4277:4384   */\n      iszero\n      tag_96\n      jumpi\n        /* \"#utility.yul\":4364:4382   */\n      tag_97\n      tag_98\n      jump\t// in\n    tag_97:\n        /* \"#utility.yul\":4277:4384   */\n    tag_96:\n        /* \"#utility.yul\":4408:4409   */\n      dup3\n        /* \"#utility.yul\":4405:4406   */\n      dup3\n        /* \"#utility.yul\":4401:4410   */\n      add\n        /* \"#utility.yul\":4394:4410   */\n      swap1\n      pop\n        /* \"#utility.yul\":4111:4416   */\n      swap3\n      swap2\n      pop\n      pop\n      jump\t// out\n        /* \"#utility.yul\":4422:4613   */\n    tag_30:\n        /* \"#utility.yul\":4462:4466   */\n      0x00\n        /* \"#utility.yul\":4482:4502   */\n      tag_100\n        /* \"#utility.yul\":4500:4501   */\n      dup3\n        /* \"#utility.yul\":4482:4502   */\n      tag_80\n      jump\t// in\n    tag_100:\n        /* \"#utility.yul\":4477:4502   */\n      swap2\n      pop\n        /* \"#utility.yul\":4516:4536   */\n      tag_101\n        /* \"#utility.yul\":4534:4535   */\n      dup4\n        /* \"#utility.yul\":4516:4536   */\n      tag_80\n      jump\t// in\n    tag_101:\n        /* \"#utility.yul\":4511:4536   */\n      swap3\n      pop\n        /* \"#utility.yul\":4555:4556   */\n      dup3\n        /* \"#utility.yul\":4552:4553   */\n      dup3\n        /* \"#utility.yul\":4549:4557   */\n      lt\n        /* \"#utility.yul\":4546:4580   */\n      iszero\n      tag_102\n      jumpi\n        /* \"#utility.yul\":4560:4578   */\n      tag_103\n      tag_98\n      jump\t// in\n    tag_103:\n        /* \"#utility.yul\":4546:4580   */\n    tag_102:\n        /* \"#utility.yul\":4605:4606   */\n      dup3\n        /* \"#utility.yul\":4602:4603   */\n      dup3\n        /* \"#utility.yul\":4598:4607   */\n      sub\n        /* \"#utility.yul\":4590:4607   */\n      swap1\n      pop\n        /* \"#utility.yul\":4422:4613   */\n      swap3\n      swap2\n      pop\n      pop\n      jump\t// out\n        /* \"#utility.yul\":4619:4715   */\n    tag_104:\n        /* \"#utility.yul\":4656:4663   */\n      0x00\n        /* \"#utility.yul\":4685:4709   */\n      tag_106\n        /* \"#utility.yul\":4703:4708   */\n      dup3\n        /* \"#utility.yul\":4685:4709   */\n      tag_107\n      jump\t// in\n    tag_106:\n        /* \"#utility.yul\":4674:4709   */\n      swap1\n      pop\n        /* \"#utility.yul\":4619:4715   */\n      swap2\n      swap1\n      pop\n      jump\t// out\n        /* \"#utility.yul\":4721:4847   */\n    tag_107:\n        /* \"#utility.yul\":4758:4765   */\n      0x00\n        /* \"#utility.yul\":4798:4840   */\n      0xffffffffffffffffffffffffffffffffffffffff\n        /* \"#utility.yul\":4791:4796   */\n      dup3\n        /* \"#utility.yul\":4787:4841   */\n      and\n        /* \"#utility.yul\":4776:4841   */\n      swap1\n      pop\n        /* \"#utility.yul\":4721:4847   */\n      swap2\n      swap1\n      pop\n      jump\t// out\n        /* \"#utility.yul\":4853:4930   */\n    tag_80:\n        /* \"#utility.yul\":4890:4897   */\n      0x00\n        /* \"#utility.yul\":4919:4924   */\n      dup2\n        /* \"#utility.yul\":4908:4924   */\n      swap1\n      pop\n        /* \"#utility.yul\":4853:4930   */\n      swap2\n      swap1\n      pop\n      jump\t// out\n        /* \"#utility.yul\":4936:5116   */\n    tag_98:\n        /* \"#utility.yul\":4984:5061   */\n      0x4e487b7100000000000000000000000000000000000000000000000000000000\n        /* \"#utility.yul\":4981:4982   */\n      0x00\n        /* \"#utility.yul\":4974:5062   */\n      mstore\n        /* \"#utility.yul\":5081:5085   */\n      0x11\n        /* \"#utility.yul\":5078:5079   */\n      0x04\n        /* \"#utility.yul\":5071:5086   */\n      mstore\n        /* \"#utility.yul\":5105:5109   */\n      0x24\n        /* \"#utility.yul\":5102:5103   */\n      0x00\n        /* \"#utility.yul\":5095:5110   */\n      revert\n        /* \"#utility.yul\":5245:5362   */\n    tag_54:\n        /* \"#utility.yul\":5354:5355   */\n      0x00\n        /* \"#utility.yul\":5351:5352   */\n      dup1\n        /* \"#utility.yul\":5344:5356   */\n      revert\n        /* \"#utility.yul\":5368:5538   */\n    tag_65:\n        /* \"#utility.yul\":5508:5530   */\n      0x4661696c656420746f2073656e64204574686572000000000000000000000000\n        /* \"#utility.yul\":5504:5505   */\n      0x00\n        /* \"#utility.yul\":5496:5502   */\n      dup3\n        /* \"#utility.yul\":5492:5506   */\n      add\n        /* \"#utility.yul\":5485:5531   */\n      mstore\n        /* \"#utility.yul\":5368:5538   */\n      pop\n      jump\t// out\n        /* \"#utility.yul\":5544:5710   */\n    tag_70:\n        /* \"#utility.yul\":5684:5702   */\n      0x4e6f7420656e6f75676820457468657200000000000000000000000000000000\n        /* \"#utility.yul\":5680:5681   */\n      0x00\n        /* \"#utility.yul\":5672:5678   */\n      dup3\n        /* \"#utility.yul\":5668:5682   */\n      add\n        /* \"#utility.yul\":5661:5703   */\n      mstore\n        /* \"#utility.yul\":5544:5710   */\n      pop\n      jump\t// out\n        /* \"#utility.yul\":5716:5870   */\n    tag_76:\n        /* \"#utility.yul\":5856:5862   */\n      0x53656e7400000000000000000000000000000000000000000000000000000000\n        /* \"#utility.yul\":5852:5853   */\n      0x00\n        /* \"#utility.yul\":5844:5850   */\n      dup3\n        /* \"#utility.yul\":5840:5854   */\n      add\n        /* \"#utility.yul\":5833:5863   */\n      mstore\n        /* \"#utility.yul\":5716:5870   */\n      pop\n      jump\t// out\n        /* \"#utility.yul\":5876:5998   */\n    tag_46:\n        /* \"#utility.yul\":5949:5973   */\n      tag_118\n        /* \"#utility.yul\":5967:5972   */\n      dup2\n        /* \"#utility.yul\":5949:5973   */\n      tag_104\n      jump\t// in\n    tag_118:\n        /* \"#utility.yul\":5942:5947   */\n      dup2\n        /* \"#utility.yul\":5939:5974   */\n      eq\n        /* \"#utility.yul\":5929:5992   */\n      tag_119\n      jumpi\n        /* \"#utility.yul\":5988:5989   */\n      0x00\n        /* \"#utility.yul\":5985:5986   */\n      dup1\n        /* \"#utility.yul\":5978:5990   */\n      revert\n        /* \"#utility.yul\":5929:5992   */\n    tag_119:\n        /* \"#utility.yul\":5876:5998   */\n      pop\n      jump\t// out\n        /* \"#utility.yul\":6004:6126   */\n    tag_50:\n        /* \"#utility.yul\":6077:6101   */\n      tag_121\n        /* \"#utility.yul\":6095:6100   */\n      dup2\n        /* \"#utility.yul\":6077:6101   */\n      tag_80\n      jump\t// in\n    tag_121:\n        /* \"#utility.yul\":6070:6075   */\n      dup2\n        /* \"#utility.yul\":6067:6102   */\n      eq\n        /* \"#utility.yul\":6057:6120   */\n      tag_122\n      jumpi\n        /* \"#utility.yul\":6116:6117   */\n      0x00\n        /* \"#utility.yul\":6113:6114   */\n      dup1\n        /* \"#utility.yul\":6106:6118   */\n      revert\n        /* \"#utility.yul\":6057:6120   */\n    tag_122:\n        /* \"#utility.yul\":6004:6126   */\n      pop\n      jump\t// out\n\n    auxdata: 0xa2646970667358221220f98e8dff6ba0d31d47441f6da295d6ec3ae633e11601cb0a866f4f65e34261ab64736f6c63430008070033\n}\n",
				"bytecode": {
					"linkReferences": {},
					"object": "608060405234801561001057600080fd5b50610654806100206000396000f3fe60806040526004361061003f5760003560e01c806312065fe01461004457806327e235e31461006f5780632e1a7d4d146100ac578063d0e30db0146100d5575b600080fd5b34801561005057600080fd5b506100596100df565b6040516100669190610444565b60405180910390f35b34801561007b57600080fd5b506100966004803603810190610091919061031d565b6100fe565b6040516100a39190610444565b60405180910390f35b3480156100b857600080fd5b506100d360048036038101906100ce919061034a565b610116565b005b6100dd61029c565b005b60003373ffffffffffffffffffffffffffffffffffffffff1631905090565b60006020528060005260406000206000915090505481565b806000803373ffffffffffffffffffffffffffffffffffffffff1673ffffffffffffffffffffffffffffffffffffffff168152602001908152602001600020541015610197576040517f08c379a000000000000000000000000000000000000000000000000000000000815260040161018e90610424565b60405180910390fd5b806000803373ffffffffffffffffffffffffffffffffffffffff1673ffffffffffffffffffffffffffffffffffffffff16815260200190815260200160002060008282546101e591906104d1565b9250508190555060003373ffffffffffffffffffffffffffffffffffffffff1682604051610212906103ef565b60006040518083038185875af1925050503d806000811461024f576040519150601f19603f3d011682016040523d82523d6000602084013e610254565b606091505b5050905080610298576040517f08c379a000000000000000000000000000000000000000000000000000000000815260040161028f90610404565b60405180910390fd5b5050565b346000803373ffffffffffffffffffffffffffffffffffffffff1673ffffffffffffffffffffffffffffffffffffffff16815260200190815260200160002060008282546102ea919061047b565b92505081905550565b600081359050610302816105f0565b92915050565b60008135905061031781610607565b92915050565b60006020828403121561033357610332610570565b5b6000610341848285016102f3565b91505092915050565b6000602082840312156103605761035f610570565b5b600061036e84828501610308565b91505092915050565b600061038460148361046a565b915061038f82610575565b602082019050919050565b60006103a760108361046a565b91506103b28261059e565b602082019050919050565b60006103ca60048361045f565b91506103d5826105c7565b600482019050919050565b6103e981610537565b82525050565b60006103fa826103bd565b9150819050919050565b6000602082019050818103600083015261041d81610377565b9050919050565b6000602082019050818103600083015261043d8161039a565b9050919050565b600060208201905061045960008301846103e0565b92915050565b600081905092915050565b600082825260208201905092915050565b600061048682610537565b915061049183610537565b9250827fffffffffffffffffffffffffffffffffffffffffffffffffffffffffffffffff038211156104c6576104c5610541565b5b828201905092915050565b60006104dc82610537565b91506104e783610537565b9250828210156104fa576104f9610541565b5b828203905092915050565b600061051082610517565b9050919050565b600073ffffffffffffffffffffffffffffffffffffffff82169050919050565b6000819050919050565b7f4e487b7100000000000000000000000000000000000000000000000000000000600052601160045260246000fd5b600080fd5b7f4661696c656420746f2073656e64204574686572000000000000000000000000600082015250565b7f4e6f7420656e6f75676820457468657200000000000000000000000000000000600082015250565b7f53656e7400000000000000000000000000000000000000000000000000000000600082015250565b6105f981610505565b811461060457600080fd5b50565b61061081610537565b811461061b57600080fd5b5056fea2646970667358221220f98e8dff6ba0d31d47441f6da295d6ec3ae633e11601cb0a866f4f65e34261ab64736f6c63430008070033",
					"opcodes": "PUSH1 0x80 PUSH1 0x40 MSTORE CALLVALUE DUP1 ISZERO PUSH2 0x10 JUMPI PUSH1 0x0 DUP1 REVERT JUMPDEST POP PUSH2 0x654 DUP1 PUSH2 0x20 PUSH1 0x0 CODECOPY PUSH1 0x0 RETURN INVALID PUSH1 0x80 PUSH1 0x40 MSTORE PUSH1 0x4 CALLDATASIZE LT PUSH2 0x3F JUMPI PUSH1 0x0 CALLDATALOAD PUSH1 0xE0 SHR DUP1 PUSH4 0x12065FE0 EQ PUSH2 0x44 JUMPI DUP1 PUSH4 0x27E235E3 EQ PUSH2 0x6F JUMPI DUP1 PUSH4 0x2E1A7D4D EQ PUSH2 0xAC JUMPI DUP1 PUSH4 0xD0E30DB0 EQ PUSH2 0xD5 JUMPI JUMPDEST PUSH1 0x0 DUP1 REVERT JUMPDEST CALLVALUE DUP1 ISZERO PUSH2 0x50 JUMPI PUSH1 0x0 DUP1 REVERT JUMPDEST POP PUSH2 0x59 PUSH2 0xDF JUMP JUMPDEST PUSH1 0x40 MLOAD PUSH2 0x66 SWAP2 SWAP1 PUSH2 0x444 JUMP JUMPDEST PUSH1 0x40 MLOAD DUP1 SWAP2 SUB SWAP1 RETURN JUMPDEST CALLVALUE DUP1 ISZERO PUSH2 0x7B JUMPI PUSH1 0x0 DUP1 REVERT JUMPDEST POP PUSH2 0x96 PUSH1 0x4 DUP1 CALLDATASIZE SUB DUP2 ADD SWAP1 PUSH2 0x91 SWAP2 SWAP1 PUSH2 0x31D JUMP JUMPDEST PUSH2 0xFE JUMP JUMPDEST PUSH1 0x40 MLOAD PUSH2 0xA3 SWAP2 SWAP1 PUSH2 0x444 JUMP JUMPDEST PUSH1 0x40 MLOAD DUP1 SWAP2 SUB SWAP1 RETURN JUMPDEST CALLVALUE DUP1 ISZERO PUSH2 0xB8 JUMPI PUSH1 0x0 DUP1 REVERT JUMPDEST POP PUSH2 0xD3 PUSH1 0x4 DUP1 CALLDATASIZE SUB DUP2 ADD SWAP1 PUSH2 0xCE SWAP2 SWAP1 PUSH2 0x34A JUMP JUMPDEST PUSH2 0x116 JUMP JUMPDEST STOP JUMPDEST PUSH2 0xDD PUSH2 0x29C JUMP JUMPDEST STOP JUMPDEST PUSH1 0x0 CALLER PUSH20 0xFFFFFFFFFFFFFFFFFFFFFFFFFFFFFFFFFFFFFFFF AND BALANCE SWAP1 POP SWAP1 JUMP JUMPDEST PUSH1 0x0 PUSH1 0x20 MSTORE DUP1 PUSH1 0x0 MSTORE PUSH1 0x40 PUSH1 0x0 KECCAK256 PUSH1 0x0 SWAP2 POP SWAP1 POP SLOAD DUP2 JUMP JUMPDEST DUP1 PUSH1 0x0 DUP1 CALLER PUSH20 0xFFFFFFFFFFFFFFFFFFFFFFFFFFFFFFFFFFFFFFFF AND PUSH20 0xFFFFFFFFFFFFFFFFFFFFFFFFFFFFFFFFFFFFFFFF AND DUP2 MSTORE PUSH1 0x20 ADD SWAP1 DUP2 MSTORE PUSH1 0x20 ADD PUSH1 0x0 KECCAK256 SLOAD LT ISZERO PUSH2 0x197 JUMPI PUSH1 0x40 MLOAD PUSH32 0x8C379A000000000000000000000000000000000000000000000000000000000 DUP2 MSTORE PUSH1 0x4 ADD PUSH2 0x18E SWAP1 PUSH2 0x424 JUMP JUMPDEST PUSH1 0x40 MLOAD DUP1 SWAP2 SUB SWAP1 REVERT JUMPDEST DUP1 PUSH1 0x0 DUP1 CALLER PUSH20 0xFFFFFFFFFFFFFFFFFFFFFFFFFFFFFFFFFFFFFFFF AND PUSH20 0xFFFFFFFFFFFFFFFFFFFFFFFFFFFFFFFFFFFFFFFF AND DUP2 MSTORE PUSH1 0x20 ADD SWAP1 DUP2 MSTORE PUSH1 0x20 ADD PUSH1 0x0 KECCAK256 PUSH1 0x0 DUP3 DUP3 SLOAD PUSH2 0x1E5 SWAP2 SWAP1 PUSH2 0x4D1 JUMP JUMPDEST SWAP3 POP POP DUP2 SWAP1 SSTORE POP PUSH1 0x0 CALLER PUSH20 0xFFFFFFFFFFFFFFFFFFFFFFFFFFFFFFFFFFFFFFFF AND DUP3 PUSH1 0x40 MLOAD PUSH2 0x212 SWAP1 PUSH2 0x3EF JUMP JUMPDEST PUSH1 0x0 PUSH1 0x40 MLOAD DUP1 DUP4 SUB DUP2 DUP6 DUP8 GAS CALL SWAP3 POP POP POP RETURNDATASIZE DUP1 PUSH1 0x0 DUP2 EQ PUSH2 0x24F JUMPI PUSH1 0x40 MLOAD SWAP2 POP PUSH1 0x1F NOT PUSH1 0x3F RETURNDATASIZE ADD AND DUP3 ADD PUSH1 0x40 MSTORE RETURNDATASIZE DUP3 MSTORE RETURNDATASIZE PUSH1 0x0 PUSH1 0x20 DUP5 ADD RETURNDATACOPY PUSH2 0x254 JUMP JUMPDEST PUSH1 0x60 SWAP2 POP JUMPDEST POP POP SWAP1 POP DUP1 PUSH2 0x298 JUMPI PUSH1 0x40 MLOAD PUSH32 0x8C379A000000000000000000000000000000000000000000000000000000000 DUP2 MSTORE PUSH1 0x4 ADD PUSH2 0x28F SWAP1 PUSH2 0x404 JUMP JUMPDEST PUSH1 0x40 MLOAD DUP1 SWAP2 SUB SWAP1 REVERT JUMPDEST POP POP JUMP JUMPDEST CALLVALUE PUSH1 0x0 DUP1 CALLER PUSH20 0xFFFFFFFFFFFFFFFFFFFFFFFFFFFFFFFFFFFFFFFF AND PUSH20 0xFFFFFFFFFFFFFFFFFFFFFFFFFFFFFFFFFFFFFFFF AND DUP2 MSTORE PUSH1 0x20 ADD SWAP1 DUP2 MSTORE PUSH1 0x20 ADD PUSH1 0x0 KECCAK256 PUSH1 0x0 DUP3 DUP3 SLOAD PUSH2 0x2EA SWAP2 SWAP1 PUSH2 0x47B JUMP JUMPDEST SWAP3 POP POP DUP2 SWAP1 SSTORE POP JUMP JUMPDEST PUSH1 0x0 DUP2 CALLDATALOAD SWAP1 POP PUSH2 0x302 DUP2 PUSH2 0x5F0 JUMP JUMPDEST SWAP3 SWAP2 POP POP JUMP JUMPDEST PUSH1 0x0 DUP2 CALLDATALOAD SWAP1 POP PUSH2 0x317 DUP2 PUSH2 0x607 JUMP JUMPDEST SWAP3 SWAP2 POP POP JUMP JUMPDEST PUSH1 0x0 PUSH1 0x20 DUP3 DUP5 SUB SLT ISZERO PUSH2 0x333 JUMPI PUSH2 0x332 PUSH2 0x570 JUMP JUMPDEST JUMPDEST PUSH1 0x0 PUSH2 0x341 DUP5 DUP3 DUP6 ADD PUSH2 0x2F3 JUMP JUMPDEST SWAP2 POP POP SWAP3 SWAP2 POP POP JUMP JUMPDEST PUSH1 0x0 PUSH1 0x20 DUP3 DUP5 SUB SLT ISZERO PUSH2 0x360 JUMPI PUSH2 0x35F PUSH2 0x570 JUMP JUMPDEST JUMPDEST PUSH1 0x0 PUSH2 0x36E DUP5 DUP3 DUP6 ADD PUSH2 0x308 JUMP JUMPDEST SWAP2 POP POP SWAP3 SWAP2 POP POP JUMP JUMPDEST PUSH1 0x0 PUSH2 0x384 PUSH1 0x14 DUP4 PUSH2 0x46A JUMP JUMPDEST SWAP2 POP PUSH2 0x38F DUP3 PUSH2 0x575 JUMP JUMPDEST PUSH1 0x20 DUP3 ADD SWAP1 POP SWAP2 SWAP1 POP JUMP JUMPDEST PUSH1 0x0 PUSH2 0x3A7 PUSH1 0x10 DUP4 PUSH2 0x46A JUMP JUMPDEST SWAP2 POP PUSH2 0x3B2 DUP3 PUSH2 0x59E JUMP JUMPDEST PUSH1 0x20 DUP3 ADD SWAP1 POP SWAP2 SWAP1 POP JUMP JUMPDEST PUSH1 0x0 PUSH2 0x3CA PUSH1 0x4 DUP4 PUSH2 0x45F JUMP JUMPDEST SWAP2 POP PUSH2 0x3D5 DUP3 PUSH2 0x5C7 JUMP JUMPDEST PUSH1 0x4 DUP3 ADD SWAP1 POP SWAP2 SWAP1 POP JUMP JUMPDEST PUSH2 0x3E9 DUP2 PUSH2 0x537 JUMP JUMPDEST DUP3 MSTORE POP POP JUMP JUMPDEST PUSH1 0x0 PUSH2 0x3FA DUP3 PUSH2 0x3BD JUMP JUMPDEST SWAP2 POP DUP2 SWAP1 POP SWAP2 SWAP1 POP JUMP JUMPDEST PUSH1 0x0 PUSH1 0x20 DUP3 ADD SWAP1 POP DUP2 DUP2 SUB PUSH1 0x0 DUP4 ADD MSTORE PUSH2 0x41D DUP2 PUSH2 0x377 JUMP JUMPDEST SWAP1 POP SWAP2 SWAP1 POP JUMP JUMPDEST PUSH1 0x0 PUSH1 0x20 DUP3 ADD SWAP1 POP DUP2 DUP2 SUB PUSH1 0x0 DUP4 ADD MSTORE PUSH2 0x43D DUP2 PUSH2 0x39A JUMP JUMPDEST SWAP1 POP SWAP2 SWAP1 POP JUMP JUMPDEST PUSH1 0x0 PUSH1 0x20 DUP3 ADD SWAP1 POP PUSH2 0x459 PUSH1 0x0 DUP4 ADD DUP5 PUSH2 0x3E0 JUMP JUMPDEST SWAP3 SWAP2 POP POP JUMP JUMPDEST PUSH1 0x0 DUP2 SWAP1 POP SWAP3 SWAP2 POP POP JUMP JUMPDEST PUSH1 0x0 DUP3 DUP3 MSTORE PUSH1 0x20 DUP3 ADD SWAP1 POP SWAP3 SWAP2 POP POP JUMP JUMPDEST PUSH1 0x0 PUSH2 0x486 DUP3 PUSH2 0x537 JUMP JUMPDEST SWAP2 POP PUSH2 0x491 DUP4 PUSH2 0x537 JUMP JUMPDEST SWAP3 POP DUP3 PUSH32 0xFFFFFFFFFFFFFFFFFFFFFFFFFFFFFFFFFFFFFFFFFFFFFFFFFFFFFFFFFFFFFFFF SUB DUP3 GT ISZERO PUSH2 0x4C6 JUMPI PUSH2 0x4C5 PUSH2 0x541 JUMP JUMPDEST JUMPDEST DUP3 DUP3 ADD SWAP1 POP SWAP3 SWAP2 POP POP JUMP JUMPDEST PUSH1 0x0 PUSH2 0x4DC DUP3 PUSH2 0x537 JUMP JUMPDEST SWAP2 POP PUSH2 0x4E7 DUP4 PUSH2 0x537 JUMP JUMPDEST SWAP3 POP DUP3 DUP3 LT ISZERO PUSH2 0x4FA JUMPI PUSH2 0x4F9 PUSH2 0x541 JUMP JUMPDEST JUMPDEST DUP3 DUP3 SUB SWAP1 POP SWAP3 SWAP2 POP POP JUMP JUMPDEST PUSH1 0x0 PUSH2 0x510 DUP3 PUSH2 0x517 JUMP JUMPDEST SWAP1 POP SWAP2 SWAP1 POP JUMP JUMPDEST PUSH1 0x0 PUSH20 0xFFFFFFFFFFFFFFFFFFFFFFFFFFFFFFFFFFFFFFFF DUP3 AND SWAP1 POP SWAP2 SWAP1 POP JUMP JUMPDEST PUSH1 0x0 DUP2 SWAP1 POP SWAP2 SWAP1 POP JUMP JUMPDEST PUSH32 0x4E487B7100000000000000000000000000000000000000000000000000000000 PUSH1 0x0 MSTORE PUSH1 0x11 PUSH1 0x4 MSTORE PUSH1 0x24 PUSH1 0x0 REVERT JUMPDEST PUSH1 0x0 DUP1 REVERT JUMPDEST PUSH32 0x4661696C656420746F2073656E64204574686572000000000000000000000000 PUSH1 0x0 DUP3 ADD MSTORE POP JUMP JUMPDEST PUSH32 0x4E6F7420656E6F75676820457468657200000000000000000000000000000000 PUSH1 0x0 DUP3 ADD MSTORE POP JUMP JUMPDEST PUSH32 0x53656E7400000000000000000000000000000000000000000000000000000000 PUSH1 0x0 DUP3 ADD MSTORE POP JUMP JUMPDEST PUSH2 0x5F9 DUP2 PUSH2 0x505 JUMP JUMPDEST DUP2 EQ PUSH2 0x604 JUMPI PUSH1 0x0 DUP1 REVERT JUMPDEST POP JUMP JUMPDEST PUSH2 0x610 DUP2 PUSH2 0x537 JUMP JUMPDEST DUP2 EQ PUSH2 0x61B JUMPI PUSH1 0x0 DUP1 REVERT JUMPDEST POP JUMP INVALID LOG2 PUSH5 0x6970667358 0x22 SLT KECCAK256 0xF9 DUP15 DUP14 SELFDESTRUCT PUSH12 0xA0D31D47441F6DA295D6EC3A 0xE6 CALLER 0xE1 AND ADD 0xCB EXP DUP7 PUSH16 0x4F65E34261AB64736F6C634300080700 CALLER "
				},
				"gasEstimates": {
					"creation": {
						"codeDepositCost": "324000",
						"executionCost": "362",
						"totalCost": "324362"
					},
					"external": {
						"balances(address)": "2814",
						"deposit()": "infinite",
						"getBalance()": "2920",
						"withdraw(uint256)": "infinite"
					}
				},
				"methodIdentifiers": {
					"balances(address)": "27e235e3",
					"deposit()": "d0e30db0",
					"getBalance()": "12065fe0",
					"withdraw(uint256)": "2e1a7d4d"
				}
			},
			"storageLayout": {
				"storage": [
					{
						"astId": 5,
						"contract": "contracts/Banking.sol:Banking",
						"label": "balances",
						"offset": 0,
						"slot": "0",
						"type": "t_mapping(t_address,t_uint256)"
					}
				],
				"types": {
					"t_address": {
						"encoding": "inplace",
						"label": "address",
						"numberOfBytes": "20"
					},
					"t_mapping(t_address,t_uint256)": {
						"encoding": "mapping",
						"key": "t_address",
						"label": "mapping(address => uint256)",
						"numberOfBytes": "32",
						"value": "t_uint256"
					},
					"t_uint256": {
						"encoding": "inplace",
						"label": "uint256",
						"numberOfBytes": "32"
					}
				}
			},
			"userdoc": {
				"kind": "user",
				"methods": {},
				"version": 1
			}
		}
	}
}