{
	"contracts/Banking.sol": {
		"Banking": {
			"abi": [
				{
					"inputs": [
						{
							"internalType": "uint256",
							"name": "",
							"type": "uint256"
						}
					],
					"name": "accounts",
					"outputs": [
						{
							"internalType": "address",
							"name": "",
							"type": "address"
						}
					],
					"stateMutability": "view",
					"type": "function"
				},
				{
					"inputs": [
						{
							"internalType": "uint256",
							"name": "amount",
							"type": "uint256"
						}
					],
					"name": "deposit",
					"outputs": [],
					"stateMutability": "payable",
					"type": "function"
				},
				{
					"inputs": [
						{
							"internalType": "uint256",
							"name": "id",
							"type": "uint256"
						}
					],
					"name": "generateAddresses",
					"outputs": [
						{
							"internalType": "uint256",
							"name": "",
							"type": "uint256"
						}
					],
					"stateMutability": "nonpayable",
					"type": "function"
				},
				{
					"inputs": [],
					"name": "getAddresses",
					"outputs": [
						{
							"internalType": "address[3]",
							"name": "",
							"type": "address[3]"
						}
					],
					"stateMutability": "view",
					"type": "function"
				},
				{
					"inputs": [],
					"name": "getBalance",
					"outputs": [
						{
							"internalType": "uint256",
							"name": "",
							"type": "uint256"
						}
					],
					"stateMutability": "view",
					"type": "function"
				}
			],
			"devdoc": {
				"kind": "dev",
				"methods": {},
				"version": 1
			},
			"evm": {
				"assembly": "    /* \"contracts/Banking.sol\":66:573  contract Banking {\r... */\n  mstore(0x40, 0x80)\n  callvalue\n  dup1\n  iszero\n  tag_1\n  jumpi\n  0x00\n  dup1\n  revert\ntag_1:\n  pop\n  dataSize(sub_0)\n  dup1\n  dataOffset(sub_0)\n  0x00\n  codecopy\n  0x00\n  return\nstop\n\nsub_0: assembly {\n        /* \"contracts/Banking.sol\":66:573  contract Banking {\r... */\n      mstore(0x40, 0x80)\n      jumpi(tag_1, lt(calldatasize, 0x04))\n      shr(0xe0, calldataload(0x00))\n      dup1\n      0x12065fe0\n      eq\n      tag_2\n      jumpi\n      dup1\n      0x86fb3fca\n      eq\n      tag_3\n      jumpi\n      dup1\n      0xa39fac12\n      eq\n      tag_4\n      jumpi\n      dup1\n      0xb6b55f25\n      eq\n      tag_5\n      jumpi\n      dup1\n      0xf2a40db8\n      eq\n      tag_6\n      jumpi\n    tag_1:\n      0x00\n      dup1\n      revert\n        /* \"contracts/Banking.sol\":414:506  function getBalance() public view returns (uint256) {\r... */\n    tag_2:\n      callvalue\n      dup1\n      iszero\n      tag_7\n      jumpi\n      0x00\n      dup1\n      revert\n    tag_7:\n      pop\n      tag_8\n      tag_9\n      jump\t// in\n    tag_8:\n      mload(0x40)\n      tag_10\n      swap2\n      swap1\n      tag_11\n      jump\t// in\n    tag_10:\n      mload(0x40)\n      dup1\n      swap2\n      sub\n      swap1\n      return\n        /* \"contracts/Banking.sol\":127:301  function generateAddresses(uint256 id) public returns (uint256) {\r... */\n    tag_3:\n      callvalue\n      dup1\n      iszero\n      tag_12\n      jumpi\n      0x00\n      dup1\n      revert\n    tag_12:\n      pop\n      tag_13\n      0x04\n      dup1\n      calldatasize\n      sub\n      dup2\n      add\n      swap1\n      tag_14\n      swap2\n      swap1\n      tag_15\n      jump\t// in\n    tag_14:\n      tag_16\n      jump\t// in\n    tag_13:\n      mload(0x40)\n      tag_17\n      swap2\n      swap1\n      tag_11\n      jump\t// in\n    tag_17:\n      mload(0x40)\n      dup1\n      swap2\n      sub\n      swap1\n      return\n        /* \"contracts/Banking.sol\":309:406  function getAddresses() public view returns(address[3] memory) {\r... */\n    tag_4:\n      callvalue\n      dup1\n      iszero\n      tag_18\n      jumpi\n      0x00\n      dup1\n      revert\n    tag_18:\n      pop\n      tag_19\n      tag_20\n      jump\t// in\n    tag_19:\n      mload(0x40)\n      tag_21\n      swap2\n      swap1\n      tag_22\n      jump\t// in\n    tag_21:\n      mload(0x40)\n      dup1\n      swap2\n      sub\n      swap1\n      return\n        /* \"contracts/Banking.sol\":514:570  function deposit(uint256 amount) public payable {\r... */\n    tag_5:\n      tag_23\n      0x04\n      dup1\n      calldatasize\n      sub\n      dup2\n      add\n      swap1\n      tag_24\n      swap2\n      swap1\n      tag_15\n      jump\t// in\n    tag_24:\n      tag_25\n      jump\t// in\n    tag_23:\n      stop\n        /* \"contracts/Banking.sol\":92:118  address[3] public accounts */\n    tag_6:\n      callvalue\n      dup1\n      iszero\n      tag_26\n      jumpi\n      0x00\n      dup1\n      revert\n    tag_26:\n      pop\n      tag_27\n      0x04\n      dup1\n      calldatasize\n      sub\n      dup2\n      add\n      swap1\n      tag_28\n      swap2\n      swap1\n      tag_15\n      jump\t// in\n    tag_28:\n      tag_29\n      jump\t// in\n    tag_27:\n      mload(0x40)\n      tag_30\n      swap2\n      swap1\n      tag_31\n      jump\t// in\n    tag_30:\n      mload(0x40)\n      dup1\n      swap2\n      sub\n      swap1\n      return\n        /* \"contracts/Banking.sol\":414:506  function getBalance() public view returns (uint256) {\r... */\n    tag_9:\n        /* \"contracts/Banking.sol\":457:464  uint256 */\n      0x00\n        /* \"contracts/Banking.sol\":480:501  address(this).balance */\n      selfbalance\n        /* \"contracts/Banking.sol\":473:501  return address(this).balance */\n      swap1\n      pop\n        /* \"contracts/Banking.sol\":414:506  function getBalance() public view returns (uint256) {\r... */\n      swap1\n      jump\t// out\n        /* \"contracts/Banking.sol\":127:301  function generateAddresses(uint256 id) public returns (uint256) {\r... */\n    tag_16:\n        /* \"contracts/Banking.sol\":182:189  uint256 */\n      0x00\n        /* \"contracts/Banking.sol\":217:232  accounts.length */\n      0x03\n        /* \"contracts/Banking.sol\":211:213  id */\n      dup3\n        /* \"contracts/Banking.sol\":211:232  id <= accounts.length */\n      gt\n      iszero\n        /* \"contracts/Banking.sol\":203:233  require(id <= accounts.length) */\n      tag_34\n      jumpi\n      0x00\n      dup1\n      revert\n    tag_34:\n        /* \"contracts/Banking.sol\":261:271  msg.sender */\n      caller\n        /* \"contracts/Banking.sol\":246:254  accounts */\n      0x00\n        /* \"contracts/Banking.sol\":255:257  id */\n      dup4\n        /* \"contracts/Banking.sol\":246:258  accounts[id] */\n      0x03\n      dup2\n      lt\n      tag_35\n      jumpi\n      tag_36\n      tag_37\n      jump\t// in\n    tag_36:\n    tag_35:\n      add\n      0x00\n        /* \"contracts/Banking.sol\":246:271  accounts[id] = msg.sender */\n      0x0100\n      exp\n      dup2\n      sload\n      dup2\n      0xffffffffffffffffffffffffffffffffffffffff\n      mul\n      not\n      and\n      swap1\n      dup4\n      0xffffffffffffffffffffffffffffffffffffffff\n      and\n      mul\n      or\n      swap1\n      sstore\n      pop\n        /* \"contracts/Banking.sol\":290:292  id */\n      dup2\n        /* \"contracts/Banking.sol\":283:292  return id */\n      swap1\n      pop\n        /* \"contracts/Banking.sol\":127:301  function generateAddresses(uint256 id) public returns (uint256) {\r... */\n      swap2\n      swap1\n      pop\n      jump\t// out\n        /* \"contracts/Banking.sol\":309:406  function getAddresses() public view returns(address[3] memory) {\r... */\n    tag_20:\n        /* \"contracts/Banking.sol\":353:370  address[3] memory */\n      tag_39\n      tag_40\n      jump\t// in\n    tag_39:\n        /* \"contracts/Banking.sol\":390:398  accounts */\n      0x00\n        /* \"contracts/Banking.sol\":383:398  return accounts */\n      0x03\n      dup1\n      0x20\n      mul\n      mload(0x40)\n      swap1\n      dup2\n      add\n      0x40\n      mstore\n      dup1\n      swap3\n      swap2\n      swap1\n      dup3\n      0x03\n      dup1\n      iszero\n      tag_42\n      jumpi\n      0x20\n      mul\n      dup3\n      add\n      swap2\n    tag_43:\n      dup2\n      0x00\n      swap1\n      sload\n      swap1\n      0x0100\n      exp\n      swap1\n      div\n      0xffffffffffffffffffffffffffffffffffffffff\n      and\n      0xffffffffffffffffffffffffffffffffffffffff\n      and\n      dup2\n      mstore\n      0x20\n      add\n      swap1\n      0x01\n      add\n      swap1\n      dup1\n      dup4\n      gt\n      tag_43\n      jumpi\n    tag_42:\n      pop\n      pop\n      pop\n      pop\n      pop\n      swap1\n      pop\n        /* \"contracts/Banking.sol\":309:406  function getAddresses() public view returns(address[3] memory) {\r... */\n      swap1\n      jump\t// out\n        /* \"contracts/Banking.sol\":514:570  function deposit(uint256 amount) public payable {\r... */\n    tag_25:\n      pop\n      jump\t// out\n        /* \"contracts/Banking.sol\":92:118  address[3] public accounts */\n    tag_29:\n      0x00\n      dup2\n      0x03\n      dup2\n      lt\n      tag_45\n      jumpi\n      0x00\n      dup1\n      revert\n    tag_45:\n      add\n      0x00\n      swap2\n      pop\n      sload\n      swap1\n      0x0100\n      exp\n      swap1\n      div\n      0xffffffffffffffffffffffffffffffffffffffff\n      and\n      dup2\n      jump\t// out\n    tag_40:\n      mload(0x40)\n      dup1\n      0x60\n      add\n      0x40\n      mstore\n      dup1\n      0x03\n      swap1\n      0x20\n      dup3\n      mul\n      dup1\n      calldatasize\n      dup4\n      calldatacopy\n      dup1\n      dup3\n      add\n      swap2\n      pop\n      pop\n      swap1\n      pop\n      pop\n      swap1\n      jump\t// out\n        /* \"#utility.yul\":7:146   */\n    tag_48:\n        /* \"#utility.yul\":53:58   */\n      0x00\n        /* \"#utility.yul\":91:97   */\n      dup2\n        /* \"#utility.yul\":78:98   */\n      calldataload\n        /* \"#utility.yul\":69:98   */\n      swap1\n      pop\n        /* \"#utility.yul\":107:140   */\n      tag_50\n        /* \"#utility.yul\":134:139   */\n      dup2\n        /* \"#utility.yul\":107:140   */\n      tag_51\n      jump\t// in\n    tag_50:\n        /* \"#utility.yul\":7:146   */\n      swap3\n      swap2\n      pop\n      pop\n      jump\t// out\n        /* \"#utility.yul\":152:481   */\n    tag_15:\n        /* \"#utility.yul\":211:217   */\n      0x00\n        /* \"#utility.yul\":260:262   */\n      0x20\n        /* \"#utility.yul\":248:257   */\n      dup3\n        /* \"#utility.yul\":239:246   */\n      dup5\n        /* \"#utility.yul\":235:258   */\n      sub\n        /* \"#utility.yul\":231:263   */\n      slt\n        /* \"#utility.yul\":228:347   */\n      iszero\n      tag_53\n      jumpi\n        /* \"#utility.yul\":266:345   */\n      tag_54\n      tag_55\n      jump\t// in\n    tag_54:\n        /* \"#utility.yul\":228:347   */\n    tag_53:\n        /* \"#utility.yul\":386:387   */\n      0x00\n        /* \"#utility.yul\":411:464   */\n      tag_56\n        /* \"#utility.yul\":456:463   */\n      dup5\n        /* \"#utility.yul\":447:453   */\n      dup3\n        /* \"#utility.yul\":436:445   */\n      dup6\n        /* \"#utility.yul\":432:454   */\n      add\n        /* \"#utility.yul\":411:464   */\n      tag_48\n      jump\t// in\n    tag_56:\n        /* \"#utility.yul\":401:464   */\n      swap2\n      pop\n        /* \"#utility.yul\":357:474   */\n      pop\n        /* \"#utility.yul\":152:481   */\n      swap3\n      swap2\n      pop\n      pop\n      jump\t// out\n        /* \"#utility.yul\":487:666   */\n    tag_57:\n        /* \"#utility.yul\":556:566   */\n      0x00\n        /* \"#utility.yul\":577:623   */\n      tag_59\n        /* \"#utility.yul\":619:622   */\n      dup4\n        /* \"#utility.yul\":611:617   */\n      dup4\n        /* \"#utility.yul\":577:623   */\n      tag_60\n      jump\t// in\n    tag_59:\n        /* \"#utility.yul\":655:659   */\n      0x20\n        /* \"#utility.yul\":650:653   */\n      dup4\n        /* \"#utility.yul\":646:660   */\n      add\n        /* \"#utility.yul\":632:660   */\n      swap1\n      pop\n        /* \"#utility.yul\":487:666   */\n      swap3\n      swap2\n      pop\n      pop\n      jump\t// out\n        /* \"#utility.yul\":672:780   */\n    tag_60:\n        /* \"#utility.yul\":749:773   */\n      tag_62\n        /* \"#utility.yul\":767:772   */\n      dup2\n        /* \"#utility.yul\":749:773   */\n      tag_63\n      jump\t// in\n    tag_62:\n        /* \"#utility.yul\":744:747   */\n      dup3\n        /* \"#utility.yul\":737:774   */\n      mstore\n        /* \"#utility.yul\":672:780   */\n      pop\n      pop\n      jump\t// out\n        /* \"#utility.yul\":786:904   */\n    tag_64:\n        /* \"#utility.yul\":873:897   */\n      tag_66\n        /* \"#utility.yul\":891:896   */\n      dup2\n        /* \"#utility.yul\":873:897   */\n      tag_63\n      jump\t// in\n    tag_66:\n        /* \"#utility.yul\":868:871   */\n      dup3\n        /* \"#utility.yul\":861:898   */\n      mstore\n        /* \"#utility.yul\":786:904   */\n      pop\n      pop\n      jump\t// out\n        /* \"#utility.yul\":942:1636   */\n    tag_67:\n        /* \"#utility.yul\":1078:1130   */\n      tag_69\n        /* \"#utility.yul\":1124:1129   */\n      dup2\n        /* \"#utility.yul\":1078:1130   */\n      tag_70\n      jump\t// in\n    tag_69:\n        /* \"#utility.yul\":1146:1230   */\n      tag_71\n        /* \"#utility.yul\":1223:1229   */\n      dup2\n        /* \"#utility.yul\":1218:1221   */\n      dup5\n        /* \"#utility.yul\":1146:1230   */\n      tag_72\n      jump\t// in\n    tag_71:\n        /* \"#utility.yul\":1139:1230   */\n      swap3\n      pop\n        /* \"#utility.yul\":1254:1308   */\n      tag_73\n        /* \"#utility.yul\":1302:1307   */\n      dup3\n        /* \"#utility.yul\":1254:1308   */\n      tag_74\n      jump\t// in\n    tag_73:\n        /* \"#utility.yul\":1331:1338   */\n      dup1\n        /* \"#utility.yul\":1362:1363   */\n      0x00\n        /* \"#utility.yul\":1347:1629   */\n    tag_75:\n        /* \"#utility.yul\":1372:1378   */\n      dup4\n        /* \"#utility.yul\":1369:1370   */\n      dup2\n        /* \"#utility.yul\":1366:1379   */\n      lt\n        /* \"#utility.yul\":1347:1629   */\n      iszero\n      tag_77\n      jumpi\n        /* \"#utility.yul\":1448:1454   */\n      dup2\n        /* \"#utility.yul\":1442:1455   */\n      mload\n        /* \"#utility.yul\":1475:1538   */\n      tag_78\n        /* \"#utility.yul\":1534:1537   */\n      dup8\n        /* \"#utility.yul\":1519:1532   */\n      dup3\n        /* \"#utility.yul\":1475:1538   */\n      tag_57\n      jump\t// in\n    tag_78:\n        /* \"#utility.yul\":1468:1538   */\n      swap7\n      pop\n        /* \"#utility.yul\":1561:1619   */\n      tag_79\n        /* \"#utility.yul\":1612:1618   */\n      dup4\n        /* \"#utility.yul\":1561:1619   */\n      tag_80\n      jump\t// in\n    tag_79:\n        /* \"#utility.yul\":1551:1619   */\n      swap3\n      pop\n        /* \"#utility.yul\":1407:1629   */\n      pop\n        /* \"#utility.yul\":1394:1395   */\n      0x01\n        /* \"#utility.yul\":1391:1392   */\n      dup2\n        /* \"#utility.yul\":1387:1396   */\n      add\n        /* \"#utility.yul\":1382:1396   */\n      swap1\n      pop\n        /* \"#utility.yul\":1347:1629   */\n      jump(tag_75)\n    tag_77:\n        /* \"#utility.yul\":1351:1365   */\n      pop\n        /* \"#utility.yul\":1054:1636   */\n      pop\n      pop\n      pop\n        /* \"#utility.yul\":942:1636   */\n      pop\n      pop\n      jump\t// out\n        /* \"#utility.yul\":1642:1760   */\n    tag_81:\n        /* \"#utility.yul\":1729:1753   */\n      tag_83\n        /* \"#utility.yul\":1747:1752   */\n      dup2\n        /* \"#utility.yul\":1729:1753   */\n      tag_84\n      jump\t// in\n    tag_83:\n        /* \"#utility.yul\":1724:1727   */\n      dup3\n        /* \"#utility.yul\":1717:1754   */\n      mstore\n        /* \"#utility.yul\":1642:1760   */\n      pop\n      pop\n      jump\t// out\n        /* \"#utility.yul\":1766:1988   */\n    tag_31:\n        /* \"#utility.yul\":1859:1863   */\n      0x00\n        /* \"#utility.yul\":1897:1899   */\n      0x20\n        /* \"#utility.yul\":1886:1895   */\n      dup3\n        /* \"#utility.yul\":1882:1900   */\n      add\n        /* \"#utility.yul\":1874:1900   */\n      swap1\n      pop\n        /* \"#utility.yul\":1910:1981   */\n      tag_86\n        /* \"#utility.yul\":1978:1979   */\n      0x00\n        /* \"#utility.yul\":1967:1976   */\n      dup4\n        /* \"#utility.yul\":1963:1980   */\n      add\n        /* \"#utility.yul\":1954:1960   */\n      dup5\n        /* \"#utility.yul\":1910:1981   */\n      tag_64\n      jump\t// in\n    tag_86:\n        /* \"#utility.yul\":1766:1988   */\n      swap3\n      swap2\n      pop\n      pop\n      jump\t// out\n        /* \"#utility.yul\":1994:2308   */\n    tag_22:\n        /* \"#utility.yul\":2133:2137   */\n      0x00\n        /* \"#utility.yul\":2171:2173   */\n      0x60\n        /* \"#utility.yul\":2160:2169   */\n      dup3\n        /* \"#utility.yul\":2156:2174   */\n      add\n        /* \"#utility.yul\":2148:2174   */\n      swap1\n      pop\n        /* \"#utility.yul\":2184:2301   */\n      tag_88\n        /* \"#utility.yul\":2298:2299   */\n      0x00\n        /* \"#utility.yul\":2287:2296   */\n      dup4\n        /* \"#utility.yul\":2283:2300   */\n      add\n        /* \"#utility.yul\":2274:2280   */\n      dup5\n        /* \"#utility.yul\":2184:2301   */\n      tag_67\n      jump\t// in\n    tag_88:\n        /* \"#utility.yul\":1994:2308   */\n      swap3\n      swap2\n      pop\n      pop\n      jump\t// out\n        /* \"#utility.yul\":2314:2536   */\n    tag_11:\n        /* \"#utility.yul\":2407:2411   */\n      0x00\n        /* \"#utility.yul\":2445:2447   */\n      0x20\n        /* \"#utility.yul\":2434:2443   */\n      dup3\n        /* \"#utility.yul\":2430:2448   */\n      add\n        /* \"#utility.yul\":2422:2448   */\n      swap1\n      pop\n        /* \"#utility.yul\":2458:2529   */\n      tag_90\n        /* \"#utility.yul\":2526:2527   */\n      0x00\n        /* \"#utility.yul\":2515:2524   */\n      dup4\n        /* \"#utility.yul\":2511:2528   */\n      add\n        /* \"#utility.yul\":2502:2508   */\n      dup5\n        /* \"#utility.yul\":2458:2529   */\n      tag_81\n      jump\t// in\n    tag_90:\n        /* \"#utility.yul\":2314:2536   */\n      swap3\n      swap2\n      pop\n      pop\n      jump\t// out\n        /* \"#utility.yul\":2623:2721   */\n    tag_74:\n        /* \"#utility.yul\":2688:2692   */\n      0x00\n        /* \"#utility.yul\":2711:2714   */\n      dup2\n        /* \"#utility.yul\":2703:2714   */\n      swap1\n      pop\n        /* \"#utility.yul\":2623:2721   */\n      swap2\n      swap1\n      pop\n      jump\t// out\n        /* \"#utility.yul\":2727:2831   */\n    tag_70:\n        /* \"#utility.yul\":2792:2798   */\n      0x00\n        /* \"#utility.yul\":2820:2824   */\n      0x03\n        /* \"#utility.yul\":2810:2824   */\n      swap1\n      pop\n        /* \"#utility.yul\":2727:2831   */\n      swap2\n      swap1\n      pop\n      jump\t// out\n        /* \"#utility.yul\":2837:2948   */\n    tag_80:\n        /* \"#utility.yul\":2905:2909   */\n      0x00\n        /* \"#utility.yul\":2937:2941   */\n      0x20\n        /* \"#utility.yul\":2932:2935   */\n      dup3\n        /* \"#utility.yul\":2928:2942   */\n      add\n        /* \"#utility.yul\":2920:2942   */\n      swap1\n      pop\n        /* \"#utility.yul\":2837:2948   */\n      swap2\n      swap1\n      pop\n      jump\t// out\n        /* \"#utility.yul\":2954:3097   */\n    tag_72:\n        /* \"#utility.yul\":3051:3062   */\n      0x00\n        /* \"#utility.yul\":3088:3091   */\n      dup2\n        /* \"#utility.yul\":3073:3091   */\n      swap1\n      pop\n        /* \"#utility.yul\":2954:3097   */\n      swap3\n      swap2\n      pop\n      pop\n      jump\t// out\n        /* \"#utility.yul\":3103:3199   */\n    tag_63:\n        /* \"#utility.yul\":3140:3147   */\n      0x00\n        /* \"#utility.yul\":3169:3193   */\n      tag_98\n        /* \"#utility.yul\":3187:3192   */\n      dup3\n        /* \"#utility.yul\":3169:3193   */\n      tag_99\n      jump\t// in\n    tag_98:\n        /* \"#utility.yul\":3158:3193   */\n      swap1\n      pop\n        /* \"#utility.yul\":3103:3199   */\n      swap2\n      swap1\n      pop\n      jump\t// out\n        /* \"#utility.yul\":3205:3331   */\n    tag_99:\n        /* \"#utility.yul\":3242:3249   */\n      0x00\n        /* \"#utility.yul\":3282:3324   */\n      0xffffffffffffffffffffffffffffffffffffffff\n        /* \"#utility.yul\":3275:3280   */\n      dup3\n        /* \"#utility.yul\":3271:3325   */\n      and\n        /* \"#utility.yul\":3260:3325   */\n      swap1\n      pop\n        /* \"#utility.yul\":3205:3331   */\n      swap2\n      swap1\n      pop\n      jump\t// out\n        /* \"#utility.yul\":3337:3414   */\n    tag_84:\n        /* \"#utility.yul\":3374:3381   */\n      0x00\n        /* \"#utility.yul\":3403:3408   */\n      dup2\n        /* \"#utility.yul\":3392:3408   */\n      swap1\n      pop\n        /* \"#utility.yul\":3337:3414   */\n      swap2\n      swap1\n      pop\n      jump\t// out\n        /* \"#utility.yul\":3420:3600   */\n    tag_37:\n        /* \"#utility.yul\":3468:3545   */\n      0x4e487b7100000000000000000000000000000000000000000000000000000000\n        /* \"#utility.yul\":3465:3466   */\n      0x00\n        /* \"#utility.yul\":3458:3546   */\n      mstore\n        /* \"#utility.yul\":3565:3569   */\n      0x32\n        /* \"#utility.yul\":3562:3563   */\n      0x04\n        /* \"#utility.yul\":3555:3570   */\n      mstore\n        /* \"#utility.yul\":3589:3593   */\n      0x24\n        /* \"#utility.yul\":3586:3587   */\n      0x00\n        /* \"#utility.yul\":3579:3594   */\n      revert\n        /* \"#utility.yul\":3729:3846   */\n    tag_55:\n        /* \"#utility.yul\":3838:3839   */\n      0x00\n        /* \"#utility.yul\":3835:3836   */\n      dup1\n        /* \"#utility.yul\":3828:3840   */\n      revert\n        /* \"#utility.yul\":3852:3974   */\n    tag_51:\n        /* \"#utility.yul\":3925:3949   */\n      tag_107\n        /* \"#utility.yul\":3943:3948   */\n      dup2\n        /* \"#utility.yul\":3925:3949   */\n      tag_84\n      jump\t// in\n    tag_107:\n        /* \"#utility.yul\":3918:3923   */\n      dup2\n        /* \"#utility.yul\":3915:3950   */\n      eq\n        /* \"#utility.yul\":3905:3968   */\n      tag_108\n      jumpi\n        /* \"#utility.yul\":3964:3965   */\n      0x00\n        /* \"#utility.yul\":3961:3962   */\n      dup1\n        /* \"#utility.yul\":3954:3966   */\n      revert\n        /* \"#utility.yul\":3905:3968   */\n    tag_108:\n        /* \"#utility.yul\":3852:3974   */\n      pop\n      jump\t// out\n\n    auxdata: 0xa2646970667358221220400bf5f60b6bc5e9c51a578cd3f846b035a0cbc01bb4c4b41748110963b4381d64736f6c63430008070033\n}\n",
				"bytecode": {
					"linkReferences": {},
					"object": "608060405234801561001057600080fd5b506104a4806100206000396000f3fe60806040526004361061004a5760003560e01c806312065fe01461004f57806386fb3fca1461007a578063a39fac12146100b7578063b6b55f25146100e2578063f2a40db8146100fe575b600080fd5b34801561005b57600080fd5b5061006461013b565b604051610071919061039f565b60405180910390f35b34801561008657600080fd5b506100a1600480360381019061009c91906102a0565b610143565b6040516100ae919061039f565b60405180910390f35b3480156100c357600080fd5b506100cc6101af565b6040516100d99190610384565b60405180910390f35b6100fc60048036038101906100f791906102a0565b610230565b005b34801561010a57600080fd5b50610125600480360381019061012091906102a0565b610233565b6040516101329190610369565b60405180910390f35b600047905090565b6000600382111561015357600080fd5b336000836003811061016857610167610423565b5b0160006101000a81548173ffffffffffffffffffffffffffffffffffffffff021916908373ffffffffffffffffffffffffffffffffffffffff160217905550819050919050565b6101b7610269565b6000600380602002604051908101604052809291908260038015610226576020028201915b8160009054906101000a900473ffffffffffffffffffffffffffffffffffffffff1673ffffffffffffffffffffffffffffffffffffffff16815260200190600101908083116101dc575b5050505050905090565b50565b6000816003811061024357600080fd5b016000915054906101000a900473ffffffffffffffffffffffffffffffffffffffff1681565b6040518060600160405280600390602082028036833780820191505090505090565b60008135905061029a81610457565b92915050565b6000602082840312156102b6576102b5610452565b5b60006102c48482850161028b565b91505092915050565b60006102d983836102e5565b60208301905092915050565b6102ee816103e7565b82525050565b6102fd816103e7565b82525050565b61030c816103c4565b61031681846103dc565b9250610321826103ba565b8060005b8381101561035257815161033987826102cd565b9650610344836103cf565b925050600181019050610325565b505050505050565b61036381610419565b82525050565b600060208201905061037e60008301846102f4565b92915050565b60006060820190506103996000830184610303565b92915050565b60006020820190506103b4600083018461035a565b92915050565b6000819050919050565b600060039050919050565b6000602082019050919050565b600081905092915050565b60006103f2826103f9565b9050919050565b600073ffffffffffffffffffffffffffffffffffffffff82169050919050565b6000819050919050565b7f4e487b7100000000000000000000000000000000000000000000000000000000600052603260045260246000fd5b600080fd5b61046081610419565b811461046b57600080fd5b5056fea2646970667358221220400bf5f60b6bc5e9c51a578cd3f846b035a0cbc01bb4c4b41748110963b4381d64736f6c63430008070033",
					"opcodes": "PUSH1 0x80 PUSH1 0x40 MSTORE CALLVALUE DUP1 ISZERO PUSH2 0x10 JUMPI PUSH1 0x0 DUP1 REVERT JUMPDEST POP PUSH2 0x4A4 DUP1 PUSH2 0x20 PUSH1 0x0 CODECOPY PUSH1 0x0 RETURN INVALID PUSH1 0x80 PUSH1 0x40 MSTORE PUSH1 0x4 CALLDATASIZE LT PUSH2 0x4A JUMPI PUSH1 0x0 CALLDATALOAD PUSH1 0xE0 SHR DUP1 PUSH4 0x12065FE0 EQ PUSH2 0x4F JUMPI DUP1 PUSH4 0x86FB3FCA EQ PUSH2 0x7A JUMPI DUP1 PUSH4 0xA39FAC12 EQ PUSH2 0xB7 JUMPI DUP1 PUSH4 0xB6B55F25 EQ PUSH2 0xE2 JUMPI DUP1 PUSH4 0xF2A40DB8 EQ PUSH2 0xFE JUMPI JUMPDEST PUSH1 0x0 DUP1 REVERT JUMPDEST CALLVALUE DUP1 ISZERO PUSH2 0x5B JUMPI PUSH1 0x0 DUP1 REVERT JUMPDEST POP PUSH2 0x64 PUSH2 0x13B JUMP JUMPDEST PUSH1 0x40 MLOAD PUSH2 0x71 SWAP2 SWAP1 PUSH2 0x39F JUMP JUMPDEST PUSH1 0x40 MLOAD DUP1 SWAP2 SUB SWAP1 RETURN JUMPDEST CALLVALUE DUP1 ISZERO PUSH2 0x86 JUMPI PUSH1 0x0 DUP1 REVERT JUMPDEST POP PUSH2 0xA1 PUSH1 0x4 DUP1 CALLDATASIZE SUB DUP2 ADD SWAP1 PUSH2 0x9C SWAP2 SWAP1 PUSH2 0x2A0 JUMP JUMPDEST PUSH2 0x143 JUMP JUMPDEST PUSH1 0x40 MLOAD PUSH2 0xAE SWAP2 SWAP1 PUSH2 0x39F JUMP JUMPDEST PUSH1 0x40 MLOAD DUP1 SWAP2 SUB SWAP1 RETURN JUMPDEST CALLVALUE DUP1 ISZERO PUSH2 0xC3 JUMPI PUSH1 0x0 DUP1 REVERT JUMPDEST POP PUSH2 0xCC PUSH2 0x1AF JUMP JUMPDEST PUSH1 0x40 MLOAD PUSH2 0xD9 SWAP2 SWAP1 PUSH2 0x384 JUMP JUMPDEST PUSH1 0x40 MLOAD DUP1 SWAP2 SUB SWAP1 RETURN JUMPDEST PUSH2 0xFC PUSH1 0x4 DUP1 CALLDATASIZE SUB DUP2 ADD SWAP1 PUSH2 0xF7 SWAP2 SWAP1 PUSH2 0x2A0 JUMP JUMPDEST PUSH2 0x230 JUMP JUMPDEST STOP JUMPDEST CALLVALUE DUP1 ISZERO PUSH2 0x10A JUMPI PUSH1 0x0 DUP1 REVERT JUMPDEST POP PUSH2 0x125 PUSH1 0x4 DUP1 CALLDATASIZE SUB DUP2 ADD SWAP1 PUSH2 0x120 SWAP2 SWAP1 PUSH2 0x2A0 JUMP JUMPDEST PUSH2 0x233 JUMP JUMPDEST PUSH1 0x40 MLOAD PUSH2 0x132 SWAP2 SWAP1 PUSH2 0x369 JUMP JUMPDEST PUSH1 0x40 MLOAD DUP1 SWAP2 SUB SWAP1 RETURN JUMPDEST PUSH1 0x0 SELFBALANCE SWAP1 POP SWAP1 JUMP JUMPDEST PUSH1 0x0 PUSH1 0x3 DUP3 GT ISZERO PUSH2 0x153 JUMPI PUSH1 0x0 DUP1 REVERT JUMPDEST CALLER PUSH1 0x0 DUP4 PUSH1 0x3 DUP2 LT PUSH2 0x168 JUMPI PUSH2 0x167 PUSH2 0x423 JUMP JUMPDEST JUMPDEST ADD PUSH1 0x0 PUSH2 0x100 EXP DUP2 SLOAD DUP2 PUSH20 0xFFFFFFFFFFFFFFFFFFFFFFFFFFFFFFFFFFFFFFFF MUL NOT AND SWAP1 DUP4 PUSH20 0xFFFFFFFFFFFFFFFFFFFFFFFFFFFFFFFFFFFFFFFF AND MUL OR SWAP1 SSTORE POP DUP2 SWAP1 POP SWAP2 SWAP1 POP JUMP JUMPDEST PUSH2 0x1B7 PUSH2 0x269 JUMP JUMPDEST PUSH1 0x0 PUSH1 0x3 DUP1 PUSH1 0x20 MUL PUSH1 0x40 MLOAD SWAP1 DUP2 ADD PUSH1 0x40 MSTORE DUP1 SWAP3 SWAP2 SWAP1 DUP3 PUSH1 0x3 DUP1 ISZERO PUSH2 0x226 JUMPI PUSH1 0x20 MUL DUP3 ADD SWAP2 JUMPDEST DUP2 PUSH1 0x0 SWAP1 SLOAD SWAP1 PUSH2 0x100 EXP SWAP1 DIV PUSH20 0xFFFFFFFFFFFFFFFFFFFFFFFFFFFFFFFFFFFFFFFF AND PUSH20 0xFFFFFFFFFFFFFFFFFFFFFFFFFFFFFFFFFFFFFFFF AND DUP2 MSTORE PUSH1 0x20 ADD SWAP1 PUSH1 0x1 ADD SWAP1 DUP1 DUP4 GT PUSH2 0x1DC JUMPI JUMPDEST POP POP POP POP POP SWAP1 POP SWAP1 JUMP JUMPDEST POP JUMP JUMPDEST PUSH1 0x0 DUP2 PUSH1 0x3 DUP2 LT PUSH2 0x243 JUMPI PUSH1 0x0 DUP1 REVERT JUMPDEST ADD PUSH1 0x0 SWAP2 POP SLOAD SWAP1 PUSH2 0x100 EXP SWAP1 DIV PUSH20 0xFFFFFFFFFFFFFFFFFFFFFFFFFFFFFFFFFFFFFFFF AND DUP2 JUMP JUMPDEST PUSH1 0x40 MLOAD DUP1 PUSH1 0x60 ADD PUSH1 0x40 MSTORE DUP1 PUSH1 0x3 SWAP1 PUSH1 0x20 DUP3 MUL DUP1 CALLDATASIZE DUP4 CALLDATACOPY DUP1 DUP3 ADD SWAP2 POP POP SWAP1 POP POP SWAP1 JUMP JUMPDEST PUSH1 0x0 DUP2 CALLDATALOAD SWAP1 POP PUSH2 0x29A DUP2 PUSH2 0x457 JUMP JUMPDEST SWAP3 SWAP2 POP POP JUMP JUMPDEST PUSH1 0x0 PUSH1 0x20 DUP3 DUP5 SUB SLT ISZERO PUSH2 0x2B6 JUMPI PUSH2 0x2B5 PUSH2 0x452 JUMP JUMPDEST JUMPDEST PUSH1 0x0 PUSH2 0x2C4 DUP5 DUP3 DUP6 ADD PUSH2 0x28B JUMP JUMPDEST SWAP2 POP POP SWAP3 SWAP2 POP POP JUMP JUMPDEST PUSH1 0x0 PUSH2 0x2D9 DUP4 DUP4 PUSH2 0x2E5 JUMP JUMPDEST PUSH1 0x20 DUP4 ADD SWAP1 POP SWAP3 SWAP2 POP POP JUMP JUMPDEST PUSH2 0x2EE DUP2 PUSH2 0x3E7 JUMP JUMPDEST DUP3 MSTORE POP POP JUMP JUMPDEST PUSH2 0x2FD DUP2 PUSH2 0x3E7 JUMP JUMPDEST DUP3 MSTORE POP POP JUMP JUMPDEST PUSH2 0x30C DUP2 PUSH2 0x3C4 JUMP JUMPDEST PUSH2 0x316 DUP2 DUP5 PUSH2 0x3DC JUMP JUMPDEST SWAP3 POP PUSH2 0x321 DUP3 PUSH2 0x3BA JUMP JUMPDEST DUP1 PUSH1 0x0 JUMPDEST DUP4 DUP2 LT ISZERO PUSH2 0x352 JUMPI DUP2 MLOAD PUSH2 0x339 DUP8 DUP3 PUSH2 0x2CD JUMP JUMPDEST SWAP7 POP PUSH2 0x344 DUP4 PUSH2 0x3CF JUMP JUMPDEST SWAP3 POP POP PUSH1 0x1 DUP2 ADD SWAP1 POP PUSH2 0x325 JUMP JUMPDEST POP POP POP POP POP POP JUMP JUMPDEST PUSH2 0x363 DUP2 PUSH2 0x419 JUMP JUMPDEST DUP3 MSTORE POP POP JUMP JUMPDEST PUSH1 0x0 PUSH1 0x20 DUP3 ADD SWAP1 POP PUSH2 0x37E PUSH1 0x0 DUP4 ADD DUP5 PUSH2 0x2F4 JUMP JUMPDEST SWAP3 SWAP2 POP POP JUMP JUMPDEST PUSH1 0x0 PUSH1 0x60 DUP3 ADD SWAP1 POP PUSH2 0x399 PUSH1 0x0 DUP4 ADD DUP5 PUSH2 0x303 JUMP JUMPDEST SWAP3 SWAP2 POP POP JUMP JUMPDEST PUSH1 0x0 PUSH1 0x20 DUP3 ADD SWAP1 POP PUSH2 0x3B4 PUSH1 0x0 DUP4 ADD DUP5 PUSH2 0x35A JUMP JUMPDEST SWAP3 SWAP2 POP POP JUMP JUMPDEST PUSH1 0x0 DUP2 SWAP1 POP SWAP2 SWAP1 POP JUMP JUMPDEST PUSH1 0x0 PUSH1 0x3 SWAP1 POP SWAP2 SWAP1 POP JUMP JUMPDEST PUSH1 0x0 PUSH1 0x20 DUP3 ADD SWAP1 POP SWAP2 SWAP1 POP JUMP JUMPDEST PUSH1 0x0 DUP2 SWAP1 POP SWAP3 SWAP2 POP POP JUMP JUMPDEST PUSH1 0x0 PUSH2 0x3F2 DUP3 PUSH2 0x3F9 JUMP JUMPDEST SWAP1 POP SWAP2 SWAP1 POP JUMP JUMPDEST PUSH1 0x0 PUSH20 0xFFFFFFFFFFFFFFFFFFFFFFFFFFFFFFFFFFFFFFFF DUP3 AND SWAP1 POP SWAP2 SWAP1 POP JUMP JUMPDEST PUSH1 0x0 DUP2 SWAP1 POP SWAP2 SWAP1 POP JUMP JUMPDEST PUSH32 0x4E487B7100000000000000000000000000000000000000000000000000000000 PUSH1 0x0 MSTORE PUSH1 0x32 PUSH1 0x4 MSTORE PUSH1 0x24 PUSH1 0x0 REVERT JUMPDEST PUSH1 0x0 DUP1 REVERT JUMPDEST PUSH2 0x460 DUP2 PUSH2 0x419 JUMP JUMPDEST DUP2 EQ PUSH2 0x46B JUMPI PUSH1 0x0 DUP1 REVERT JUMPDEST POP JUMP INVALID LOG2 PUSH5 0x6970667358 0x22 SLT KECCAK256 BLOCKHASH SIGNEXTEND CREATE2 0xF6 SIGNEXTEND PUSH12 0xC5E9C51A578CD3F846B035A0 0xCB 0xC0 SHL 0xB4 0xC4 0xB4 OR BASEFEE GT MULMOD PUSH4 0xB4381D64 PUSH20 0x6F6C634300080700330000000000000000000000 "
				},
				"gasEstimates": {
					"creation": {
						"codeDepositCost": "237600",
						"executionCost": "281",
						"totalCost": "237881"
					},
					"external": {
						"accounts(uint256)": "2871",
						"deposit(uint256)": "426",
						"generateAddresses(uint256)": "infinite",
						"getAddresses()": "infinite",
						"getBalance()": "317"
					}
				},
				"methodIdentifiers": {
					"accounts(uint256)": "f2a40db8",
					"deposit(uint256)": "b6b55f25",
					"generateAddresses(uint256)": "86fb3fca",
					"getAddresses()": "a39fac12",
					"getBalance()": "12065fe0"
				}
			},
			"storageLayout": {
				"storage": [
					{
						"astId": 5,
						"contract": "contracts/Banking.sol:Banking",
						"label": "accounts",
						"offset": 0,
						"slot": "0",
						"type": "t_array(t_address)3_storage"
					}
				],
				"types": {
					"t_address": {
						"encoding": "inplace",
						"label": "address",
						"numberOfBytes": "20"
					},
					"t_array(t_address)3_storage": {
						"base": "t_address",
						"encoding": "inplace",
						"label": "address[3]",
						"numberOfBytes": "96"
					}
				}
			},
			"userdoc": {
				"kind": "user",
				"methods": {},
				"version": 1
			}
		}
	}
}